{
  "_format": "hh-sol-artifact-1",
  "contractName": "Dao",
  "sourceName": "contracts/Dao.sol",
  "abi": [
    {
      "inputs": [
        {
          "internalType": "address[]",
          "name": "directors",
          "type": "address[]"
        },
        {
          "internalType": "address[]",
          "name": "assemblyMembers",
          "type": "address[]"
        }
      ],
      "stateMutability": "nonpayable",
      "type": "constructor"
    },
    {
      "anonymous": false,
      "inputs": [
        {
          "indexed": false,
          "internalType": "uint256",
          "name": "date",
          "type": "uint256"
        },
        {
          "indexed": false,
          "internalType": "address",
          "name": "owner",
          "type": "address"
        },
        {
          "indexed": false,
          "internalType": "uint256",
          "name": "question_id",
          "type": "uint256"
        },
        {
          "indexed": false,
          "internalType": "bool",
          "name": "value",
          "type": "bool"
        },
        {
          "indexed": false,
          "internalType": "string",
          "name": "reason",
          "type": "string"
        },
        {
          "indexed": false,
          "internalType": "bool",
          "name": "is_available",
          "type": "bool"
        }
      ],
      "name": "AnswerQuestion",
      "type": "event"
    },
    {
      "anonymous": false,
      "inputs": [
        {
          "indexed": false,
          "internalType": "uint256",
          "name": "date",
          "type": "uint256"
        },
        {
          "indexed": false,
          "internalType": "address",
          "name": "owner",
          "type": "address"
        },
        {
          "indexed": false,
          "internalType": "string",
          "name": "question",
          "type": "string"
        },
        {
          "indexed": false,
          "internalType": "string",
          "name": "description",
          "type": "string"
        }
      ],
      "name": "AskQuestion",
      "type": "event"
    },
    {
      "inputs": [
        {
          "internalType": "uint256",
          "name": "_question_id",
          "type": "uint256"
        },
        {
          "internalType": "bool",
          "name": "_answer",
          "type": "bool"
        },
        {
          "internalType": "string",
          "name": "_reason",
          "type": "string"
        }
      ],
      "name": "answer_question",
      "outputs": [],
      "stateMutability": "nonpayable",
      "type": "function"
    },
    {
      "inputs": [
        {
          "internalType": "string",
          "name": "question",
          "type": "string"
        },
        {
          "internalType": "string",
          "name": "description",
          "type": "string"
        }
      ],
      "name": "ask_question",
      "outputs": [],
      "stateMutability": "nonpayable",
      "type": "function"
    },
    {
      "inputs": [
        {
          "internalType": "uint256",
          "name": "",
          "type": "uint256"
        }
      ],
      "name": "boardOfDirectors",
      "outputs": [
        {
          "internalType": "uint256",
          "name": "amountOfToken",
          "type": "uint256"
        },
        {
          "internalType": "address",
          "name": "memberAddress",
          "type": "address"
        },
        {
          "internalType": "bool",
          "name": "is_director",
          "type": "bool"
        }
      ],
      "stateMutability": "view",
      "type": "function"
    },
    {
      "inputs": [],
      "name": "daoToken",
      "outputs": [
        {
          "internalType": "contract DAOToken",
          "name": "",
          "type": "address"
        }
      ],
      "stateMutability": "view",
      "type": "function"
    },
    {
      "inputs": [
        {
          "internalType": "uint256",
          "name": "",
          "type": "uint256"
        }
      ],
      "name": "generalAssembly",
      "outputs": [
        {
          "internalType": "uint256",
          "name": "amountOfToken",
          "type": "uint256"
        },
        {
          "internalType": "address",
          "name": "memberAddress",
          "type": "address"
        },
        {
          "internalType": "bool",
          "name": "is_director",
          "type": "bool"
        }
      ],
      "stateMutability": "view",
      "type": "function"
    },
    {
      "inputs": [
        {
          "internalType": "uint256",
          "name": "_questionId",
          "type": "uint256"
        }
      ],
      "name": "getAnswersForQuestion",
      "outputs": [
        {
          "components": [
            {
              "internalType": "bool",
              "name": "value",
              "type": "bool"
            },
            {
              "internalType": "address",
              "name": "owner",
              "type": "address"
            },
            {
              "internalType": "string",
              "name": "reason",
              "type": "string"
            }
          ],
          "internalType": "struct DaoStructs.Answer[]",
          "name": "",
          "type": "tuple[]"
        }
      ],
      "stateMutability": "view",
      "type": "function"
    },
    {
      "inputs": [
        {
          "internalType": "address",
          "name": "holderAddress",
          "type": "address"
        }
      ],
      "name": "getHolder",
      "outputs": [
        {
          "components": [
            {
              "internalType": "uint256",
              "name": "amountOfToken",
              "type": "uint256"
            },
            {
              "internalType": "address",
              "name": "memberAddress",
              "type": "address"
            },
            {
              "internalType": "bool",
              "name": "is_director",
              "type": "bool"
            }
          ],
          "internalType": "struct DaoStructs.Holder",
          "name": "",
          "type": "tuple"
        }
      ],
      "stateMutability": "view",
      "type": "function"
    },
    {
      "inputs": [
        {
          "internalType": "uint256",
          "name": "_questionId",
          "type": "uint256"
        }
      ],
      "name": "getQuestionDetails",
      "outputs": [
        {
          "components": [
            {
              "internalType": "uint256",
              "name": "id",
              "type": "uint256"
            },
            {
              "internalType": "string",
              "name": "value",
              "type": "string"
            },
            {
              "internalType": "string",
              "name": "description",
              "type": "string"
            },
            {
              "internalType": "uint256",
              "name": "total_answers",
              "type": "uint256"
            },
            {
              "internalType": "bool",
              "name": "is_available",
              "type": "bool"
            },
            {
              "internalType": "address",
              "name": "owner",
              "type": "address"
            },
            {
              "internalType": "uint256",
              "name": "positive_weight",
              "type": "uint256"
            },
            {
              "internalType": "uint256",
              "name": "negative_weight",
              "type": "uint256"
            }
          ],
          "internalType": "struct DaoStructs.Question",
          "name": "",
          "type": "tuple"
        }
      ],
      "stateMutability": "view",
      "type": "function"
    },
    {
      "inputs": [],
      "name": "getQuestions",
      "outputs": [
        {
          "components": [
            {
              "internalType": "uint256",
              "name": "id",
              "type": "uint256"
            },
            {
              "internalType": "string",
              "name": "value",
              "type": "string"
            },
            {
              "internalType": "string",
              "name": "description",
              "type": "string"
            },
            {
              "internalType": "uint256",
              "name": "total_answers",
              "type": "uint256"
            },
            {
              "internalType": "bool",
              "name": "is_available",
              "type": "bool"
            },
            {
              "internalType": "address",
              "name": "owner",
              "type": "address"
            },
            {
              "internalType": "uint256",
              "name": "positive_weight",
              "type": "uint256"
            },
            {
              "internalType": "uint256",
              "name": "negative_weight",
              "type": "uint256"
            }
          ],
          "internalType": "struct DaoStructs.Question[]",
          "name": "",
          "type": "tuple[]"
        }
      ],
      "stateMutability": "view",
      "type": "function"
    },
    {
      "inputs": [
        {
          "internalType": "address",
          "name": "",
          "type": "address"
        },
        {
          "internalType": "uint256",
          "name": "",
          "type": "uint256"
        }
      ],
      "name": "hasAnswered",
      "outputs": [
        {
          "internalType": "bool",
          "name": "",
          "type": "bool"
        }
      ],
      "stateMutability": "view",
      "type": "function"
    },
    {
      "inputs": [
        {
          "internalType": "uint256",
          "name": "",
          "type": "uint256"
        },
        {
          "internalType": "uint256",
          "name": "",
          "type": "uint256"
        }
      ],
      "name": "questionAnswers",
      "outputs": [
        {
          "internalType": "bool",
          "name": "value",
          "type": "bool"
        },
        {
          "internalType": "address",
          "name": "owner",
          "type": "address"
        },
        {
          "internalType": "string",
          "name": "reason",
          "type": "string"
        }
      ],
      "stateMutability": "view",
      "type": "function"
    },
    {
      "inputs": [],
      "name": "question_id",
      "outputs": [
        {
          "internalType": "uint256",
          "name": "",
          "type": "uint256"
        }
      ],
      "stateMutability": "view",
      "type": "function"
    },
    {
      "inputs": [
        {
          "internalType": "uint256",
          "name": "",
          "type": "uint256"
        }
      ],
      "name": "questions",
      "outputs": [
        {
          "internalType": "uint256",
          "name": "id",
          "type": "uint256"
        },
        {
          "internalType": "string",
          "name": "value",
          "type": "string"
        },
        {
          "internalType": "string",
          "name": "description",
          "type": "string"
        },
        {
          "internalType": "uint256",
          "name": "total_answers",
          "type": "uint256"
        },
        {
          "internalType": "bool",
          "name": "is_available",
          "type": "bool"
        },
        {
          "internalType": "address",
          "name": "owner",
          "type": "address"
        },
        {
          "internalType": "uint256",
          "name": "positive_weight",
          "type": "uint256"
        },
        {
          "internalType": "uint256",
          "name": "negative_weight",
          "type": "uint256"
        }
      ],
      "stateMutability": "view",
      "type": "function"
    }
  ],
  "bytecode": "0x608060405260006001553480156200001657600080fd5b5060405162002aa338038062002aa383398101604081905262000039916200037f565b60005b8251811015620001315760006040518060600160405280606481526020018584815181106200006f576200006f620003e9565b6020908102919091018101516001600160a01b03908116835260019282018390526002805493840181556000819052845193027f405787fa12a823e0f2b7631cc41b3ba8828b3321ca811111fa75cd3aa3bb5ace810193909355908301517f405787fa12a823e0f2b7631cc41b3ba8828b3321ca811111fa75cd3aa3bb5acf90920180546040909401511515600160a01b026001600160a81b0319909416929091169190911791909117905550806200012881620003ff565b9150506200003c565b5060005b81518110156200022a576000604051806060016040528060328152602001848481518110620001685762000168620003e9565b6020908102919091018101516001600160a01b039081168352600092820183905260038054600181018255935283517fc2575a0e9e593c00f959f8c92f12db2869c3395a3b0502d05e2516446f71f85b600290940293840155908301517fc2575a0e9e593c00f959f8c92f12db2869c3395a3b0502d05e2516446f71f85c9092018054604090940151929091166001600160a81b031990931692909217600160a01b9115159190910217905550806200022181620003ff565b91505062000135565b50600360026040516200023d9062000291565b6200024a9291906200048e565b604051809103906000f08015801562000267573d6000803e3d6000fd5b50600080546001600160a01b0319166001600160a01b039290921691909117905550620004c09050565b610db58062001cee83390190565b634e487b7160e01b600052604160045260246000fd5b80516001600160a01b0381168114620002cd57600080fd5b919050565b600082601f830112620002e457600080fd5b815160206001600160401b03808311156200030357620003036200029f565b8260051b604051601f19603f830116810181811084821117156200032b576200032b6200029f565b6040529384528581018301938381019250878511156200034a57600080fd5b83870191505b8482101562000374576200036482620002b5565b8352918301919083019062000350565b979650505050505050565b600080604083850312156200039357600080fd5b82516001600160401b0380821115620003ab57600080fd5b620003b986838701620002d2565b93506020850151915080821115620003d057600080fd5b50620003df85828601620002d2565b9150509250929050565b634e487b7160e01b600052603260045260246000fd5b60006000198214156200042257634e487b7160e01b600052601160045260246000fd5b5060010190565b6000815480845260208085019450836000528060002060005b838110156200048357815487526001808301546001600160a01b038116858a015260a01c60ff16151560408901526060909701966002909201910162000442565b509495945050505050565b604081526000620004a3604083018562000429565b8281036020840152620004b7818562000429565b95945050505050565b61181e80620004d06000396000f3fe608060405234801561001057600080fd5b50600436106100cf5760003560e01c80638cbb4fee1161008c578063bb6fe45a11610066578063bb6fe45a146101e5578063bd30046314610223578063c71e8f7f1461025b578063cd75c7d41461026e57600080fd5b80638cbb4fee1461019957806397221ab7146101b05780639f8c45cf146101c557600080fd5b80632e809333146100d457806331b1b978146100ff57806335dcf0b0146101265780634914b0301461014657806349787d871461017157806365343da914610186575b600080fd5b6100e76100e2366004611221565b6102ae565b6040516100f693929190611290565b60405180910390f35b61011261010d3660046112c5565b610386565b6040516100f69897969594939291906112de565b6101396101343660046112c5565b6104f9565b6040516100f69190611341565b600054610159906001600160a01b031681565b6040516001600160a01b0390911681526020016100f6565b61018461017f36600461146e565b610643565b005b6101846101943660046114d2565b610821565b6101a260015481565b6040519081526020016100f6565b6101b8610bbb565b6040516100f691906115b3565b6101d86101d33660046112c5565b610d90565b6040516100f69190611615565b6102136101f336600461164b565b600660209081526000928352604080842090915290825290205460ff1681565b60405190151581526020016100f6565b6102366102313660046112c5565b610fa7565b604080519384526001600160a01b0390921660208401521515908201526060016100f6565b6102366102693660046112c5565b610fea565b61028161027c366004611675565b610ffa565b60408051825181526020808401516001600160a01b031690820152918101511515908201526060016100f6565b600560205281600052604060002081815481106102ca57600080fd5b60009182526020909120600290910201805460018201805460ff831695506101009092046001600160a01b031693509061030390611690565b80601f016020809104026020016040519081016040528092919081815260200182805461032f90611690565b801561037c5780601f106103515761010080835404028352916020019161037c565b820191906000526020600020905b81548152906001019060200180831161035f57829003601f168201915b5050505050905083565b6004818154811061039657600080fd5b600091825260209091206007909102018054600182018054919350906103bb90611690565b80601f01602080910402602001604051908101604052809291908181526020018280546103e790611690565b80156104345780601f1061040957610100808354040283529160200191610434565b820191906000526020600020905b81548152906001019060200180831161041757829003601f168201915b50505050509080600201805461044990611690565b80601f016020809104026020016040519081016040528092919081815260200182805461047590611690565b80156104c25780601f10610497576101008083540402835291602001916104c2565b820191906000526020600020905b8154815290600101906020018083116104a557829003601f168201915b505050506003830154600484015460058501546006909501549394919360ff821693506101009091046001600160a01b0316919088565b606060015482106105255760405162461bcd60e51b815260040161051c906116cb565b60405180910390fd5b600082815260056020908152604080832080548251818502810185019093528083529193909284015b828210156106385760008481526020908190206040805160608101825260028602909201805460ff81161515845261010090046001600160a01b031693830193909352600183018054929392918401916105a790611690565b80601f01602080910402602001604051908101604052809291908181526020018280546105d390611690565b80156106205780601f106105f557610100808354040283529160200191610620565b820191906000526020600020905b81548152906001019060200180831161060357829003601f168201915b5050505050815250508152602001906001019061054e565b505050509050919050565b600061064e33610ffa565b905080604001516106925760405162461bcd60e51b815260206004820152600e60248201526d2737ba1030903234b932b1ba37b960911b604482015260640161051c565b60408051610100810182526001805482526020808301878152938301869052600060608401819052608084018390523360a085015260c0840181905260e084018190526004805493840181559052825160079092027f8a35acfbc15ff81a39ae7d344fd709f28e8600b4aa8c65c6b64bfe7fe36bd19b81019283559351805193948594610747937f8a35acfbc15ff81a39ae7d344fd709f28e8600b4aa8c65c6b64bfe7fe36bd19c9092019290910190611188565b5060408201518051610763916002840191602090910190611188565b5060608201516003820155608082015160048201805460a08501516001600160a01b031661010002610100600160a81b0319931515939093166001600160a81b03199091161791909117905560c0820151600582015560e090910151600690910155600180549060006107d58361170e565b91905055507fe0ea17323348132ee305e33b925c3cb3295ec1a3cb4dd569cf5451917dfe1bd842836020015186866040516108139493929190611729565b60405180910390a150505050565b60015483106108425760405162461bcd60e51b815260040161051c906116cb565b6004838154811061085557610855611770565b600091825260209091206004600790920201015460ff166108c85760405162461bcd60e51b815260206004820152602760248201527f5175657374696f6e206973206e6f7420617661696c61626c6520666f7220616e60448201526673776572696e6760c81b606482015260840161051c565b33600090815260066020908152604080832086845290915290205460ff16156109455760405162461bcd60e51b815260206004820152602960248201527f486f6c6465722068617320616c726561647920616e73776572656420746869736044820152681038bab2b9ba34b7b760b91b606482015260840161051c565b604080516060810182528315158152908101829052336020820181905260009061096e90610ffa565b60008681526005602090815260408083208054600181810183559185529383902087516002909502018054888501516001600160a01b031661010002610100600160a81b0319961515969096166001600160a81b03199091161794909417845590860151805194955086946109eb93928501929190910190611188565b50505060048581548110610a0157610a01611770565b600091825260208220600360079092020101805491610a1f8361170e565b91905055508315610a6b5780516004805487908110610a4057610a40611770565b90600052602060002090600702016005016000828254610a609190611786565b90915550610aa79050565b80516004805487908110610a8157610a81611770565b90600052602060002090600702016006016000828254610aa19190611786565b90915550505b600254600354610ab79190611786565b60048681548110610aca57610aca611770565b9060005260206000209060070201600301541415610b1a57600060048681548110610af757610af7611770565b60009182526020909120600790910201600401805460ff19169115159190911790555b3360009081526006602090815260408083208884528252909120805460ff19166001179055810151600480547faa9bcf05303730cd8fe163389cab38cb3f4062c226556efbe8a0e835744f787292429290918991899189919084908110610b8357610b83611770565b6000918252602090912060046007909202010154604051610bac96959493929160ff169061179e565b60405180910390a15050505050565b60606004805480602002602001604051908101604052809291908181526020016000905b82821015610d8757838290600052602060002090600702016040518061010001604052908160008201548152602001600182018054610c1d90611690565b80601f0160208091040260200160405190810160405280929190818152602001828054610c4990611690565b8015610c965780601f10610c6b57610100808354040283529160200191610c96565b820191906000526020600020905b815481529060010190602001808311610c7957829003601f168201915b50505050508152602001600282018054610caf90611690565b80601f0160208091040260200160405190810160405280929190818152602001828054610cdb90611690565b8015610d285780601f10610cfd57610100808354040283529160200191610d28565b820191906000526020600020905b815481529060010190602001808311610d0b57829003601f168201915b50505091835250506003820154602080830191909152600483015460ff81161515604084015261010090046001600160a01b031660608301526005830154608083015260069092015460a0909101529082526001929092019101610bdf565b50505050905090565b610de36040518061010001604052806000815260200160608152602001606081526020016000815260200160001515815260200160006001600160a01b0316815260200160008152602001600081525090565b6001548210610e045760405162461bcd60e51b815260040161051c906116cb565b60048281548110610e1757610e17611770565b90600052602060002090600702016040518061010001604052908160008201548152602001600182018054610e4b90611690565b80601f0160208091040260200160405190810160405280929190818152602001828054610e7790611690565b8015610ec45780601f10610e9957610100808354040283529160200191610ec4565b820191906000526020600020905b815481529060010190602001808311610ea757829003601f168201915b50505050508152602001600282018054610edd90611690565b80601f0160208091040260200160405190810160405280929190818152602001828054610f0990611690565b8015610f565780601f10610f2b57610100808354040283529160200191610f56565b820191906000526020600020905b815481529060010190602001808311610f3957829003601f168201915b505050918352505060038201546020820152600482015460ff81161515604083015261010090046001600160a01b031660608201526005820154608082015260069091015460a09091015292915050565b60038181548110610fb757600080fd5b6000918252602090912060029091020180546001909101549091506001600160a01b03811690600160a01b900460ff1683565b60028181548110610fb757600080fd5b60408051606081018252600080825260208201819052918101829052905b6002548110156110d957826001600160a01b03166002828154811061103f5761103f611770565b60009182526020909120600160029092020101546001600160a01b031614156110c7576002818154811061107557611075611770565b60009182526020918290206040805160608101825260029390930290910180548352600101546001600160a01b03811693830193909352600160a01b90920460ff161515918101919091529392505050565b806110d18161170e565b915050611018565b5060005b60035481101561114c57826001600160a01b03166003828154811061110457611104611770565b60009182526020909120600160029092020101546001600160a01b0316141561113a576003818154811061107557611075611770565b806111448161170e565b9150506110dd565b5060405162461bcd60e51b815260206004820152601060248201526f121bdb19195c881b9bdd08199bdd5b9960821b604482015260640161051c565b82805461119490611690565b90600052602060002090601f0160209004810192826111b657600085556111fc565b82601f106111cf57805160ff19168380011785556111fc565b828001600101855582156111fc579182015b828111156111fc5782518255916020019190600101906111e1565b5061120892915061120c565b5090565b5b80821115611208576000815560010161120d565b6000806040838503121561123457600080fd5b50508035926020909101359150565b6000815180845260005b818110156112695760208185018101518683018201520161124d565b8181111561127b576000602083870101525b50601f01601f19169290920160200192915050565b83151581526001600160a01b03831660208201526060604082018190526000906112bc90830184611243565b95945050505050565b6000602082840312156112d757600080fd5b5035919050565b60006101008a83528060208401526112f88184018b611243565b9050828103604084015261130c818a611243565b6060840198909852505093151560808501526001600160a01b039290921660a084015260c083015260e0909101529392505050565b60006020808301818452808551808352604092508286019150828160051b87010184880160005b838110156113bd57888303603f190185528151805115158452878101516001600160a01b03168885015286015160608785018190526113a981860183611243565b968901969450505090860190600101611368565b509098975050505050505050565b634e487b7160e01b600052604160045260246000fd5b600082601f8301126113f257600080fd5b813567ffffffffffffffff8082111561140d5761140d6113cb565b604051601f8301601f19908116603f01168101908282118183101715611435576114356113cb565b8160405283815286602085880101111561144e57600080fd5b836020870160208301376000602085830101528094505050505092915050565b6000806040838503121561148157600080fd5b823567ffffffffffffffff8082111561149957600080fd5b6114a5868387016113e1565b935060208501359150808211156114bb57600080fd5b506114c8858286016113e1565b9150509250929050565b6000806000606084860312156114e757600080fd5b83359250602084013580151581146114fe57600080fd5b9150604084013567ffffffffffffffff81111561151a57600080fd5b611526868287016113e1565b9150509250925092565b600061010082518452602083015181602086015261155082860182611243565b9150506040830151848203604086015261156a8282611243565b9150506060830151606085015260808301511515608085015260018060a01b0360a08401511660a085015260c083015160c085015260e083015160e08501528091505092915050565b6000602080830181845280855180835260408601915060408160051b870101925083870160005b8281101561160857603f198886030184526115f6858351611530565b945092850192908501906001016115da565b5092979650505050505050565b6020815260006116286020830184611530565b9392505050565b80356001600160a01b038116811461164657600080fd5b919050565b6000806040838503121561165e57600080fd5b6116678361162f565b946020939093013593505050565b60006020828403121561168757600080fd5b6116288261162f565b600181811c908216806116a457607f821691505b602082108114156116c557634e487b7160e01b600052602260045260246000fd5b50919050565b602080825260139082015272125b9d985b1a59081c5d595cdd1a5bdb881a59606a1b604082015260600190565b634e487b7160e01b600052601160045260246000fd5b6000600019821415611722576117226116f8565b5060010190565b8481526001600160a01b038416602082015260806040820181905260009061175390830185611243565b82810360608401526117658185611243565b979650505050505050565b634e487b7160e01b600052603260045260246000fd5b60008219821115611799576117996116f8565b500190565b86815260018060a01b0386166020820152846040820152831515606082015260c0608082015260006117d360c0830185611243565b905082151560a083015297965050505050505056fea26469706673582212202846fc4d5de50924dc205d5f426e24534f7113b37f3db76c78ad6e929e902d6c64736f6c6343000809003360806040523480156200001157600080fd5b5060405162000db538038062000db583398101604081905262000034916200043c565b604051806040016040528060088152602001672220a7aa37b5b2b760c11b8152506040518060400160405280600381526020016244414f60e81b81525081600390805190602001906200008992919062000242565b5080516200009f90600490602084019062000242565b50505060005b8251811015620001165762000101838281518110620000c857620000c8620004a6565b602002602001015160200151848381518110620000e957620000e9620004a6565b6020026020010151600001516200017c60201b60201c565b806200010d81620004d2565b915050620000a5565b5060005b815181101562000173576200015e8282815181106200013d576200013d620004a6565b602002602001015160200151838381518110620000e957620000e9620004a6565b806200016a81620004d2565b9150506200011a565b50505062000548565b6001600160a01b038216620001d75760405162461bcd60e51b815260206004820152601f60248201527f45524332303a206d696e7420746f20746865207a65726f206164647265737300604482015260640160405180910390fd5b8060026000828254620001eb9190620004f0565b90915550506001600160a01b038216600081815260208181526040808320805486019055518481527fddf252ad1be2c89b69c2b068fc378daa952ba7f163c4a11628f55a4df523b3ef910160405180910390a35050565b82805462000250906200050b565b90600052602060002090601f016020900481019282620002745760008555620002bf565b82601f106200028f57805160ff1916838001178555620002bf565b82800160010185558215620002bf579182015b82811115620002bf578251825591602001919060010190620002a2565b50620002cd929150620002d1565b5090565b5b80821115620002cd5760008155600101620002d2565b634e487b7160e01b600052604160045260246000fd5b604051606081016001600160401b0381118282101715620003235762000323620002e8565b60405290565b604051601f8201601f191681016001600160401b0381118282101715620003545762000354620002e8565b604052919050565b600082601f8301126200036e57600080fd5b815160206001600160401b038211156200038c576200038c620002e8565b6200039c818360051b0162000329565b82815260609283028501820192828201919087851115620003bc57600080fd5b8387015b858110156200042f5781818a031215620003da5760008081fd5b620003e4620002fe565b81518152858201516001600160a01b0381168114620004035760008081fd5b8187015260408281015180151581146200041d5760008081fd5b908201528452928401928101620003c0565b5090979650505050505050565b600080604083850312156200045057600080fd5b82516001600160401b03808211156200046857600080fd5b62000476868387016200035c565b935060208501519150808211156200048d57600080fd5b506200049c858286016200035c565b9150509250929050565b634e487b7160e01b600052603260045260246000fd5b634e487b7160e01b600052601160045260246000fd5b6000600019821415620004e957620004e9620004bc565b5060010190565b60008219821115620005065762000506620004bc565b500190565b600181811c908216806200052057607f821691505b602082108114156200054257634e487b7160e01b600052602260045260246000fd5b50919050565b61085d80620005586000396000f3fe608060405234801561001057600080fd5b50600436106100a95760003560e01c80633950935111610071578063395093511461012357806370a082311461013657806395d89b411461015f578063a457c2d714610167578063a9059cbb1461017a578063dd62ed3e1461018d57600080fd5b806306fdde03146100ae578063095ea7b3146100cc57806318160ddd146100ef57806323b872dd14610101578063313ce56714610114575b600080fd5b6100b66101a0565b6040516100c3919061069a565b60405180910390f35b6100df6100da36600461070b565b610232565b60405190151581526020016100c3565b6002545b6040519081526020016100c3565b6100df61010f366004610735565b61024a565b604051601281526020016100c3565b6100df61013136600461070b565b61026e565b6100f3610144366004610771565b6001600160a01b031660009081526020819052604090205490565b6100b6610290565b6100df61017536600461070b565b61029f565b6100df61018836600461070b565b61031f565b6100f361019b366004610793565b61032d565b6060600380546101af906107c6565b80601f01602080910402602001604051908101604052809291908181526020018280546101db906107c6565b80156102285780601f106101fd57610100808354040283529160200191610228565b820191906000526020600020905b81548152906001019060200180831161020b57829003601f168201915b5050505050905090565b600033610240818585610358565b5060019392505050565b60003361025885828561047c565b6102638585856104f6565b506001949350505050565b600033610240818585610281838361032d565b61028b9190610801565b610358565b6060600480546101af906107c6565b600033816102ad828661032d565b9050838110156103125760405162461bcd60e51b815260206004820152602560248201527f45524332303a2064656372656173656420616c6c6f77616e63652062656c6f77604482015264207a65726f60d81b60648201526084015b60405180910390fd5b6102638286868403610358565b6000336102408185856104f6565b6001600160a01b03918216600090815260016020908152604080832093909416825291909152205490565b6001600160a01b0383166103ba5760405162461bcd60e51b8152602060048201526024808201527f45524332303a20617070726f76652066726f6d20746865207a65726f206164646044820152637265737360e01b6064820152608401610309565b6001600160a01b03821661041b5760405162461bcd60e51b815260206004820152602260248201527f45524332303a20617070726f766520746f20746865207a65726f206164647265604482015261737360f01b6064820152608401610309565b6001600160a01b0383811660008181526001602090815260408083209487168084529482529182902085905590518481527f8c5be1e5ebec7d5bd14f71427d1e84f3dd0314c0f7b2291e5b200ac8c7c3b925910160405180910390a3505050565b6000610488848461032d565b905060001981146104f057818110156104e35760405162461bcd60e51b815260206004820152601d60248201527f45524332303a20696e73756666696369656e7420616c6c6f77616e63650000006044820152606401610309565b6104f08484848403610358565b50505050565b6001600160a01b03831661055a5760405162461bcd60e51b815260206004820152602560248201527f45524332303a207472616e736665722066726f6d20746865207a65726f206164604482015264647265737360d81b6064820152608401610309565b6001600160a01b0382166105bc5760405162461bcd60e51b815260206004820152602360248201527f45524332303a207472616e7366657220746f20746865207a65726f206164647260448201526265737360e81b6064820152608401610309565b6001600160a01b038316600090815260208190526040902054818110156106345760405162461bcd60e51b815260206004820152602660248201527f45524332303a207472616e7366657220616d6f756e7420657863656564732062604482015265616c616e636560d01b6064820152608401610309565b6001600160a01b03848116600081815260208181526040808320878703905593871680835291849020805487019055925185815290927fddf252ad1be2c89b69c2b068fc378daa952ba7f163c4a11628f55a4df523b3ef910160405180910390a36104f0565b600060208083528351808285015260005b818110156106c7578581018301518582016040015282016106ab565b818111156106d9576000604083870101525b50601f01601f1916929092016040019392505050565b80356001600160a01b038116811461070657600080fd5b919050565b6000806040838503121561071e57600080fd5b610727836106ef565b946020939093013593505050565b60008060006060848603121561074a57600080fd5b610753846106ef565b9250610761602085016106ef565b9150604084013590509250925092565b60006020828403121561078357600080fd5b61078c826106ef565b9392505050565b600080604083850312156107a657600080fd5b6107af836106ef565b91506107bd602084016106ef565b90509250929050565b600181811c908216806107da57607f821691505b602082108114156107fb57634e487b7160e01b600052602260045260246000fd5b50919050565b6000821982111561082257634e487b7160e01b600052601160045260246000fd5b50019056fea264697066735822122024ee815443e4f069c5eb91ecf4a7671778039b61f279415315142772df11ad5564736f6c63430008090033",
  "linkReferences": {},
  "deployedLinkReferences": {}
}